{
	"FundMe.sol": {
		"FundMe": {
			"abi": [
				{
					"inputs": [],
					"name": "fund",
					"outputs": [],
					"stateMutability": "payable",
					"type": "function"
				},
				{
					"inputs": [
						{
							"internalType": "uint256",
							"name": "",
							"type": "uint256"
						}
					],
					"name": "funders",
					"outputs": [
						{
							"internalType": "address",
							"name": "",
							"type": "address"
						}
					],
					"stateMutability": "view",
					"type": "function"
				},
				{
					"inputs": [],
					"name": "minimumUsd",
					"outputs": [
						{
							"internalType": "uint256",
							"name": "",
							"type": "uint256"
						}
					],
					"stateMutability": "view",
					"type": "function"
				},
				{
					"inputs": [],
					"name": "withdraw",
					"outputs": [],
					"stateMutability": "nonpayable",
					"type": "function"
				}
			],
			"devdoc": {
				"kind": "dev",
				"methods": {},
				"version": 1
			},
			"evm": {
				"assembly": "    /* \"FundMe.sol\":112:585  contract FundMe{... */\n  mstore(0x40, 0x80)\n    /* \"FundMe.sol\":204:208  5e18 */\n  0x4563918244f40000\n    /* \"FundMe.sol\":176:208  uint256 public minimumUsd = 5e18 */\n  0x00\n  sstore\n    /* \"FundMe.sol\":112:585  contract FundMe{... */\n  callvalue\n  dup1\n  iszero\n  tag_1\n  jumpi\n  0x00\n  dup1\n  revert\ntag_1:\n  pop\n  dataSize(sub_0)\n  dup1\n  dataOffset(sub_0)\n  0x00\n  codecopy\n  0x00\n  return\nstop\n\nsub_0: assembly {\n        /* \"FundMe.sol\":112:585  contract FundMe{... */\n      mstore(0x40, 0x80)\n      jumpi(tag_1, lt(calldatasize, 0x04))\n      shr(0xe0, calldataload(0x00))\n      dup1\n      0x098de820\n      eq\n      tag_2\n      jumpi\n      dup1\n      0x3ccfd60b\n      eq\n      tag_3\n      jumpi\n      dup1\n      0xb60d4288\n      eq\n      tag_4\n      jumpi\n      dup1\n      0xdc0d3dff\n      eq\n      tag_5\n      jumpi\n    tag_1:\n      0x00\n      dup1\n      revert\n        /* \"FundMe.sol\":176:208  uint256 public minimumUsd = 5e18 */\n    tag_2:\n      callvalue\n      dup1\n      iszero\n      tag_6\n      jumpi\n      0x00\n      dup1\n      revert\n    tag_6:\n      pop\n      tag_7\n      tag_8\n      jump\t// in\n    tag_7:\n      mload(0x40)\n      tag_9\n      swap2\n      swap1\n      tag_10\n      jump\t// in\n    tag_9:\n      mload(0x40)\n      dup1\n      swap2\n      sub\n      swap1\n      return\n        /* \"FundMe.sol\":547:576  function withdraw() public {} */\n    tag_3:\n      callvalue\n      dup1\n      iszero\n      tag_11\n      jumpi\n      0x00\n      dup1\n      revert\n    tag_11:\n      pop\n      tag_12\n      tag_13\n      jump\t// in\n    tag_12:\n      stop\n        /* \"FundMe.sol\":329:541  function fund() public payable {... */\n    tag_4:\n      tag_14\n      tag_15\n      jump\t// in\n    tag_14:\n      stop\n        /* \"FundMe.sol\":219:243  address[] public funders */\n    tag_5:\n      callvalue\n      dup1\n      iszero\n      tag_16\n      jumpi\n      0x00\n      dup1\n      revert\n    tag_16:\n      pop\n      tag_17\n      0x04\n      dup1\n      calldatasize\n      sub\n      dup2\n      add\n      swap1\n      tag_18\n      swap2\n      swap1\n      tag_19\n      jump\t// in\n    tag_18:\n      tag_20\n      jump\t// in\n    tag_17:\n      mload(0x40)\n      tag_21\n      swap2\n      swap1\n      tag_22\n      jump\t// in\n    tag_21:\n      mload(0x40)\n      dup1\n      swap2\n      sub\n      swap1\n      return\n        /* \"FundMe.sol\":176:208  uint256 public minimumUsd = 5e18 */\n    tag_8:\n      sload(0x00)\n      dup2\n      jump\t// out\n        /* \"FundMe.sol\":547:576  function withdraw() public {} */\n    tag_13:\n      jump\t// out\n        /* \"FundMe.sol\":329:541  function fund() public payable {... */\n    tag_15:\n        /* \"FundMe.sol\":411:421  minimumUsd */\n      sload(0x00)\n        /* \"FundMe.sol\":378:407  msg.value.getConversionRate() */\n      tag_25\n        /* \"FundMe.sol\":378:387  msg.value */\n      callvalue\n        /* \"FundMe.sol\":378:405  msg.value.getConversionRate */\n      tag_26\n        /* \"FundMe.sol\":378:407  msg.value.getConversionRate() */\n      jump\t// in\n    tag_25:\n        /* \"FundMe.sol\":378:421  msg.value.getConversionRate() >= minimumUsd */\n      lt\n      iszero\n        /* \"FundMe.sol\":370:444  require(msg.value.getConversionRate() >= minimumUsd, \"didn't send enough\") */\n      tag_27\n      jumpi\n      mload(0x40)\n      0x08c379a000000000000000000000000000000000000000000000000000000000\n      dup2\n      mstore\n      0x04\n      add\n      tag_28\n      swap1\n      tag_29\n      jump\t// in\n    tag_28:\n      mload(0x40)\n      dup1\n      swap2\n      sub\n      swap1\n      revert\n    tag_27:\n        /* \"FundMe.sol\":454:461  funders */\n      0x01\n        /* \"FundMe.sol\":467:477  msg.sender */\n      caller\n        /* \"FundMe.sol\":454:478  funders.push(msg.sender) */\n      swap1\n      dup1\n      0x01\n      dup2\n      sload\n      add\n      dup1\n      dup3\n      sstore\n      dup1\n      swap2\n      pop\n      pop\n      0x01\n      swap1\n      sub\n      swap1\n      0x00\n      mstore\n      keccak256(0x00, 0x20)\n      add\n      0x00\n      swap1\n      swap2\n      swap1\n      swap2\n      swap1\n      swap2\n      0x0100\n      exp\n      dup2\n      sload\n      dup2\n      0xffffffffffffffffffffffffffffffffffffffff\n      mul\n      not\n      and\n      swap1\n      dup4\n      0xffffffffffffffffffffffffffffffffffffffff\n      and\n      mul\n      or\n      swap1\n      sstore\n      pop\n        /* \"FundMe.sol\":525:534  msg.value */\n      callvalue\n        /* \"FundMe.sol\":488:509  addressToAmountFunded */\n      0x02\n        /* \"FundMe.sol\":488:521  addressToAmountFunded[msg.sender] */\n      0x00\n        /* \"FundMe.sol\":510:520  msg.sender */\n      caller\n        /* \"FundMe.sol\":488:521  addressToAmountFunded[msg.sender] */\n      0xffffffffffffffffffffffffffffffffffffffff\n      and\n      0xffffffffffffffffffffffffffffffffffffffff\n      and\n      dup2\n      mstore\n      0x20\n      add\n      swap1\n      dup2\n      mstore\n      0x20\n      add\n      0x00\n      keccak256\n      0x00\n        /* \"FundMe.sol\":488:534  addressToAmountFunded[msg.sender] += msg.value */\n      dup3\n      dup3\n      sload\n      tag_31\n      swap2\n      swap1\n      tag_32\n      jump\t// in\n    tag_31:\n      swap3\n      pop\n      pop\n      dup2\n      swap1\n      sstore\n      pop\n        /* \"FundMe.sol\":329:541  function fund() public payable {... */\n      jump\t// out\n        /* \"FundMe.sol\":219:243  address[] public funders */\n    tag_20:\n      0x01\n      dup2\n      dup2\n      sload\n      dup2\n      lt\n      tag_33\n      jumpi\n      0x00\n      dup1\n      revert\n    tag_33:\n      swap1\n      0x00\n      mstore\n      keccak256(0x00, 0x20)\n      add\n      0x00\n      swap2\n      pop\n      sload\n      swap1\n      0x0100\n      exp\n      swap1\n      div\n      0xffffffffffffffffffffffffffffffffffffffff\n      and\n      dup2\n      jump\t// out\n        /* \"PriceConverter.sol\":553:772  function getConversionRate(uint256 ethAmount) internal view returns(uint256) {... */\n    tag_26:\n        /* \"PriceConverter.sol\":621:628  uint256 */\n      0x00\n        /* \"PriceConverter.sol\":640:656  uint256 ethPrice */\n      dup1\n        /* \"PriceConverter.sol\":659:669  getPrice() */\n      tag_36\n        /* \"PriceConverter.sol\":659:667  getPrice */\n      tag_37\n        /* \"PriceConverter.sol\":659:669  getPrice() */\n      jump\t// in\n    tag_36:\n        /* \"PriceConverter.sol\":640:669  uint256 ethPrice = getPrice() */\n      swap1\n      pop\n        /* \"PriceConverter.sol\":679:701  uint256 ethAmountInUsd */\n      0x00\n        /* \"PriceConverter.sol\":729:733  1e18 */\n      0x0de0b6b3a7640000\n        /* \"PriceConverter.sol\":717:725  ethPrice */\n      dup3\n        /* \"PriceConverter.sol\":705:714  ethAmount */\n      dup6\n        /* \"PriceConverter.sol\":705:725  ethAmount * ethPrice */\n      tag_38\n      swap2\n      swap1\n      tag_39\n      jump\t// in\n    tag_38:\n        /* \"PriceConverter.sol\":704:733  (ethAmount * ethPrice) / 1e18 */\n      tag_40\n      swap2\n      swap1\n      tag_41\n      jump\t// in\n    tag_40:\n        /* \"PriceConverter.sol\":679:733  uint256 ethAmountInUsd = (ethAmount * ethPrice) / 1e18 */\n      swap1\n      pop\n        /* \"PriceConverter.sol\":750:764  ethAmountInUsd */\n      dup1\n        /* \"PriceConverter.sol\":743:765  return(ethAmountInUsd) */\n      swap3\n      pop\n      pop\n      pop\n        /* \"PriceConverter.sol\":553:772  function getConversionRate(uint256 ethAmount) internal view returns(uint256) {... */\n      swap2\n      swap1\n      pop\n      jump\t// out\n        /* \"PriceConverter.sol\":202:547  function getPrice() internal view returns(uint256){... */\n    tag_37:\n        /* \"PriceConverter.sol\":244:251  uint256 */\n      0x00\n        /* \"PriceConverter.sol\":340:371  AggregatorV3Interface priceFeed */\n      dup1\n        /* \"PriceConverter.sol\":396:438  0x5fb1616F78dA7aFC9FF79e0371741a747D2a7F22 */\n      0x5fb1616f78da7afc9ff79e0371741a747d2a7f22\n        /* \"PriceConverter.sol\":340:439  AggregatorV3Interface priceFeed = AggregatorV3Interface(0x5fb1616F78dA7aFC9FF79e0371741a747D2a7F22) */\n      swap1\n      pop\n        /* \"PriceConverter.sol\":452:464  int256 price */\n      0x00\n        /* \"PriceConverter.sol\":474:483  priceFeed */\n      dup2\n        /* \"PriceConverter.sol\":474:499  priceFeed.latestRoundData */\n      0xffffffffffffffffffffffffffffffffffffffff\n      and\n      0xfeaf968c\n        /* \"PriceConverter.sol\":474:501  priceFeed.latestRoundData() */\n      mload(0x40)\n      dup2\n      0xffffffff\n      and\n      0xe0\n      shl\n      dup2\n      mstore\n      0x04\n      add\n      0xa0\n      mload(0x40)\n      dup1\n      dup4\n      sub\n      dup2\n      dup7\n      gas\n      staticcall\n      iszero\n      dup1\n      iszero\n      tag_44\n      jumpi\n      returndatasize\n      0x00\n      dup1\n      returndatacopy\n      revert(0x00, returndatasize)\n    tag_44:\n      pop\n      pop\n      pop\n      pop\n      mload(0x40)\n      returndatasize\n      not(0x1f)\n      0x1f\n      dup3\n      add\n      and\n      dup3\n      add\n      dup1\n      0x40\n      mstore\n      pop\n      dup2\n      add\n      swap1\n      tag_45\n      swap2\n      swap1\n      tag_46\n      jump\t// in\n    tag_45:\n        /* \"PriceConverter.sol\":449:501  (, int256 price, , , ) = priceFeed.latestRoundData() */\n      pop\n      pop\n      pop\n      swap2\n      pop\n      pop\n        /* \"PriceConverter.sol\":534:538  1e10 */\n      0x02540be400\n        /* \"PriceConverter.sol\":526:531  price */\n      dup2\n        /* \"PriceConverter.sol\":526:538  price * 1e10 */\n      tag_47\n      swap2\n      swap1\n      tag_48\n      jump\t// in\n    tag_47:\n        /* \"PriceConverter.sol\":511:539  return uint256(price * 1e10) */\n      swap3\n      pop\n      pop\n      pop\n        /* \"PriceConverter.sol\":202:547  function getPrice() internal view returns(uint256){... */\n      swap1\n      jump\t// out\n        /* \"#utility.yul\":7:84   */\n    tag_49:\n        /* \"#utility.yul\":44:51   */\n      0x00\n        /* \"#utility.yul\":73:78   */\n      dup2\n        /* \"#utility.yul\":62:78   */\n      swap1\n      pop\n        /* \"#utility.yul\":7:84   */\n      swap2\n      swap1\n      pop\n      jump\t// out\n        /* \"#utility.yul\":90:208   */\n    tag_50:\n        /* \"#utility.yul\":177:201   */\n      tag_74\n        /* \"#utility.yul\":195:200   */\n      dup2\n        /* \"#utility.yul\":177:201   */\n      tag_49\n      jump\t// in\n    tag_74:\n        /* \"#utility.yul\":172:175   */\n      dup3\n        /* \"#utility.yul\":165:202   */\n      mstore\n        /* \"#utility.yul\":90:208   */\n      pop\n      pop\n      jump\t// out\n        /* \"#utility.yul\":214:436   */\n    tag_10:\n        /* \"#utility.yul\":307:311   */\n      0x00\n        /* \"#utility.yul\":345:347   */\n      0x20\n        /* \"#utility.yul\":334:343   */\n      dup3\n        /* \"#utility.yul\":330:348   */\n      add\n        /* \"#utility.yul\":322:348   */\n      swap1\n      pop\n        /* \"#utility.yul\":358:429   */\n      tag_76\n        /* \"#utility.yul\":426:427   */\n      0x00\n        /* \"#utility.yul\":415:424   */\n      dup4\n        /* \"#utility.yul\":411:428   */\n      add\n        /* \"#utility.yul\":402:408   */\n      dup5\n        /* \"#utility.yul\":358:429   */\n      tag_50\n      jump\t// in\n    tag_76:\n        /* \"#utility.yul\":214:436   */\n      swap3\n      swap2\n      pop\n      pop\n      jump\t// out\n        /* \"#utility.yul\":523:640   */\n    tag_52:\n        /* \"#utility.yul\":632:633   */\n      0x00\n        /* \"#utility.yul\":629:630   */\n      dup1\n        /* \"#utility.yul\":622:634   */\n      revert\n        /* \"#utility.yul\":769:891   */\n    tag_54:\n        /* \"#utility.yul\":842:866   */\n      tag_81\n        /* \"#utility.yul\":860:865   */\n      dup2\n        /* \"#utility.yul\":842:866   */\n      tag_49\n      jump\t// in\n    tag_81:\n        /* \"#utility.yul\":835:840   */\n      dup2\n        /* \"#utility.yul\":832:867   */\n      eq\n        /* \"#utility.yul\":822:885   */\n      tag_82\n      jumpi\n        /* \"#utility.yul\":881:882   */\n      0x00\n        /* \"#utility.yul\":878:879   */\n      dup1\n        /* \"#utility.yul\":871:883   */\n      revert\n        /* \"#utility.yul\":822:885   */\n    tag_82:\n        /* \"#utility.yul\":769:891   */\n      pop\n      jump\t// out\n        /* \"#utility.yul\":897:1036   */\n    tag_55:\n        /* \"#utility.yul\":943:948   */\n      0x00\n        /* \"#utility.yul\":981:987   */\n      dup2\n        /* \"#utility.yul\":968:988   */\n      calldataload\n        /* \"#utility.yul\":959:988   */\n      swap1\n      pop\n        /* \"#utility.yul\":997:1030   */\n      tag_84\n        /* \"#utility.yul\":1024:1029   */\n      dup2\n        /* \"#utility.yul\":997:1030   */\n      tag_54\n      jump\t// in\n    tag_84:\n        /* \"#utility.yul\":897:1036   */\n      swap3\n      swap2\n      pop\n      pop\n      jump\t// out\n        /* \"#utility.yul\":1042:1371   */\n    tag_19:\n        /* \"#utility.yul\":1101:1107   */\n      0x00\n        /* \"#utility.yul\":1150:1152   */\n      0x20\n        /* \"#utility.yul\":1138:1147   */\n      dup3\n        /* \"#utility.yul\":1129:1136   */\n      dup5\n        /* \"#utility.yul\":1125:1148   */\n      sub\n        /* \"#utility.yul\":1121:1153   */\n      slt\n        /* \"#utility.yul\":1118:1237   */\n      iszero\n      tag_86\n      jumpi\n        /* \"#utility.yul\":1156:1235   */\n      tag_87\n      tag_52\n      jump\t// in\n    tag_87:\n        /* \"#utility.yul\":1118:1237   */\n    tag_86:\n        /* \"#utility.yul\":1276:1277   */\n      0x00\n        /* \"#utility.yul\":1301:1354   */\n      tag_88\n        /* \"#utility.yul\":1346:1353   */\n      dup5\n        /* \"#utility.yul\":1337:1343   */\n      dup3\n        /* \"#utility.yul\":1326:1335   */\n      dup6\n        /* \"#utility.yul\":1322:1344   */\n      add\n        /* \"#utility.yul\":1301:1354   */\n      tag_55\n      jump\t// in\n    tag_88:\n        /* \"#utility.yul\":1291:1354   */\n      swap2\n      pop\n        /* \"#utility.yul\":1247:1364   */\n      pop\n        /* \"#utility.yul\":1042:1371   */\n      swap3\n      swap2\n      pop\n      pop\n      jump\t// out\n        /* \"#utility.yul\":1377:1503   */\n    tag_56:\n        /* \"#utility.yul\":1414:1421   */\n      0x00\n        /* \"#utility.yul\":1454:1496   */\n      0xffffffffffffffffffffffffffffffffffffffff\n        /* \"#utility.yul\":1447:1452   */\n      dup3\n        /* \"#utility.yul\":1443:1497   */\n      and\n        /* \"#utility.yul\":1432:1497   */\n      swap1\n      pop\n        /* \"#utility.yul\":1377:1503   */\n      swap2\n      swap1\n      pop\n      jump\t// out\n        /* \"#utility.yul\":1509:1605   */\n    tag_57:\n        /* \"#utility.yul\":1546:1553   */\n      0x00\n        /* \"#utility.yul\":1575:1599   */\n      tag_91\n        /* \"#utility.yul\":1593:1598   */\n      dup3\n        /* \"#utility.yul\":1575:1599   */\n      tag_56\n      jump\t// in\n    tag_91:\n        /* \"#utility.yul\":1564:1599   */\n      swap1\n      pop\n        /* \"#utility.yul\":1509:1605   */\n      swap2\n      swap1\n      pop\n      jump\t// out\n        /* \"#utility.yul\":1611:1729   */\n    tag_58:\n        /* \"#utility.yul\":1698:1722   */\n      tag_93\n        /* \"#utility.yul\":1716:1721   */\n      dup2\n        /* \"#utility.yul\":1698:1722   */\n      tag_57\n      jump\t// in\n    tag_93:\n        /* \"#utility.yul\":1693:1696   */\n      dup3\n        /* \"#utility.yul\":1686:1723   */\n      mstore\n        /* \"#utility.yul\":1611:1729   */\n      pop\n      pop\n      jump\t// out\n        /* \"#utility.yul\":1735:1957   */\n    tag_22:\n        /* \"#utility.yul\":1828:1832   */\n      0x00\n        /* \"#utility.yul\":1866:1868   */\n      0x20\n        /* \"#utility.yul\":1855:1864   */\n      dup3\n        /* \"#utility.yul\":1851:1869   */\n      add\n        /* \"#utility.yul\":1843:1869   */\n      swap1\n      pop\n        /* \"#utility.yul\":1879:1950   */\n      tag_95\n        /* \"#utility.yul\":1947:1948   */\n      0x00\n        /* \"#utility.yul\":1936:1945   */\n      dup4\n        /* \"#utility.yul\":1932:1949   */\n      add\n        /* \"#utility.yul\":1923:1929   */\n      dup5\n        /* \"#utility.yul\":1879:1950   */\n      tag_58\n      jump\t// in\n    tag_95:\n        /* \"#utility.yul\":1735:1957   */\n      swap3\n      swap2\n      pop\n      pop\n      jump\t// out\n        /* \"#utility.yul\":1963:2132   */\n    tag_59:\n        /* \"#utility.yul\":2047:2058   */\n      0x00\n        /* \"#utility.yul\":2081:2087   */\n      dup3\n        /* \"#utility.yul\":2076:2079   */\n      dup3\n        /* \"#utility.yul\":2069:2088   */\n      mstore\n        /* \"#utility.yul\":2121:2125   */\n      0x20\n        /* \"#utility.yul\":2116:2119   */\n      dup3\n        /* \"#utility.yul\":2112:2126   */\n      add\n        /* \"#utility.yul\":2097:2126   */\n      swap1\n      pop\n        /* \"#utility.yul\":1963:2132   */\n      swap3\n      swap2\n      pop\n      pop\n      jump\t// out\n        /* \"#utility.yul\":2138:2306   */\n    tag_60:\n        /* \"#utility.yul\":2278:2298   */\n      0x6469646e27742073656e6420656e6f7567680000000000000000000000000000\n        /* \"#utility.yul\":2274:2275   */\n      0x00\n        /* \"#utility.yul\":2266:2272   */\n      dup3\n        /* \"#utility.yul\":2262:2276   */\n      add\n        /* \"#utility.yul\":2255:2299   */\n      mstore\n        /* \"#utility.yul\":2138:2306   */\n      pop\n      jump\t// out\n        /* \"#utility.yul\":2312:2678   */\n    tag_61:\n        /* \"#utility.yul\":2454:2457   */\n      0x00\n        /* \"#utility.yul\":2475:2542   */\n      tag_99\n        /* \"#utility.yul\":2539:2541   */\n      0x12\n        /* \"#utility.yul\":2534:2537   */\n      dup4\n        /* \"#utility.yul\":2475:2542   */\n      tag_59\n      jump\t// in\n    tag_99:\n        /* \"#utility.yul\":2468:2542   */\n      swap2\n      pop\n        /* \"#utility.yul\":2551:2644   */\n      tag_100\n        /* \"#utility.yul\":2640:2643   */\n      dup3\n        /* \"#utility.yul\":2551:2644   */\n      tag_60\n      jump\t// in\n    tag_100:\n        /* \"#utility.yul\":2669:2671   */\n      0x20\n        /* \"#utility.yul\":2664:2667   */\n      dup3\n        /* \"#utility.yul\":2660:2672   */\n      add\n        /* \"#utility.yul\":2653:2672   */\n      swap1\n      pop\n        /* \"#utility.yul\":2312:2678   */\n      swap2\n      swap1\n      pop\n      jump\t// out\n        /* \"#utility.yul\":2684:3103   */\n    tag_29:\n        /* \"#utility.yul\":2850:2854   */\n      0x00\n        /* \"#utility.yul\":2888:2890   */\n      0x20\n        /* \"#utility.yul\":2877:2886   */\n      dup3\n        /* \"#utility.yul\":2873:2891   */\n      add\n        /* \"#utility.yul\":2865:2891   */\n      swap1\n      pop\n        /* \"#utility.yul\":2937:2946   */\n      dup2\n        /* \"#utility.yul\":2931:2935   */\n      dup2\n        /* \"#utility.yul\":2927:2947   */\n      sub\n        /* \"#utility.yul\":2923:2924   */\n      0x00\n        /* \"#utility.yul\":2912:2921   */\n      dup4\n        /* \"#utility.yul\":2908:2925   */\n      add\n        /* \"#utility.yul\":2901:2948   */\n      mstore\n        /* \"#utility.yul\":2965:3096   */\n      tag_102\n        /* \"#utility.yul\":3091:3095   */\n      dup2\n        /* \"#utility.yul\":2965:3096   */\n      tag_61\n      jump\t// in\n    tag_102:\n        /* \"#utility.yul\":2957:3096   */\n      swap1\n      pop\n        /* \"#utility.yul\":2684:3103   */\n      swap2\n      swap1\n      pop\n      jump\t// out\n        /* \"#utility.yul\":3109:3289   */\n    tag_62:\n        /* \"#utility.yul\":3157:3234   */\n      0x4e487b7100000000000000000000000000000000000000000000000000000000\n        /* \"#utility.yul\":3154:3155   */\n      0x00\n        /* \"#utility.yul\":3147:3235   */\n      mstore\n        /* \"#utility.yul\":3254:3258   */\n      0x11\n        /* \"#utility.yul\":3251:3252   */\n      0x04\n        /* \"#utility.yul\":3244:3259   */\n      mstore\n        /* \"#utility.yul\":3278:3282   */\n      0x24\n        /* \"#utility.yul\":3275:3276   */\n      0x00\n        /* \"#utility.yul\":3268:3283   */\n      revert\n        /* \"#utility.yul\":3295:3486   */\n    tag_32:\n        /* \"#utility.yul\":3335:3338   */\n      0x00\n        /* \"#utility.yul\":3354:3374   */\n      tag_105\n        /* \"#utility.yul\":3372:3373   */\n      dup3\n        /* \"#utility.yul\":3354:3374   */\n      tag_49\n      jump\t// in\n    tag_105:\n        /* \"#utility.yul\":3349:3374   */\n      swap2\n      pop\n        /* \"#utility.yul\":3388:3408   */\n      tag_106\n        /* \"#utility.yul\":3406:3407   */\n      dup4\n        /* \"#utility.yul\":3388:3408   */\n      tag_49\n      jump\t// in\n    tag_106:\n        /* \"#utility.yul\":3383:3408   */\n      swap3\n      pop\n        /* \"#utility.yul\":3431:3432   */\n      dup3\n        /* \"#utility.yul\":3428:3429   */\n      dup3\n        /* \"#utility.yul\":3424:3433   */\n      add\n        /* \"#utility.yul\":3417:3433   */\n      swap1\n      pop\n        /* \"#utility.yul\":3452:3455   */\n      dup1\n        /* \"#utility.yul\":3449:3450   */\n      dup3\n        /* \"#utility.yul\":3446:3456   */\n      gt\n        /* \"#utility.yul\":3443:3479   */\n      iszero\n      tag_107\n      jumpi\n        /* \"#utility.yul\":3459:3477   */\n      tag_108\n      tag_62\n      jump\t// in\n    tag_108:\n        /* \"#utility.yul\":3443:3479   */\n    tag_107:\n        /* \"#utility.yul\":3295:3486   */\n      swap3\n      swap2\n      pop\n      pop\n      jump\t// out\n        /* \"#utility.yul\":3492:3902   */\n    tag_39:\n        /* \"#utility.yul\":3532:3539   */\n      0x00\n        /* \"#utility.yul\":3555:3575   */\n      tag_110\n        /* \"#utility.yul\":3573:3574   */\n      dup3\n        /* \"#utility.yul\":3555:3575   */\n      tag_49\n      jump\t// in\n    tag_110:\n        /* \"#utility.yul\":3550:3575   */\n      swap2\n      pop\n        /* \"#utility.yul\":3589:3609   */\n      tag_111\n        /* \"#utility.yul\":3607:3608   */\n      dup4\n        /* \"#utility.yul\":3589:3609   */\n      tag_49\n      jump\t// in\n    tag_111:\n        /* \"#utility.yul\":3584:3609   */\n      swap3\n      pop\n        /* \"#utility.yul\":3644:3645   */\n      dup3\n        /* \"#utility.yul\":3641:3642   */\n      dup3\n        /* \"#utility.yul\":3637:3646   */\n      mul\n        /* \"#utility.yul\":3666:3696   */\n      tag_112\n        /* \"#utility.yul\":3684:3695   */\n      dup2\n        /* \"#utility.yul\":3666:3696   */\n      tag_49\n      jump\t// in\n    tag_112:\n        /* \"#utility.yul\":3655:3696   */\n      swap2\n      pop\n        /* \"#utility.yul\":3845:3846   */\n      dup3\n        /* \"#utility.yul\":3836:3843   */\n      dup3\n        /* \"#utility.yul\":3832:3847   */\n      div\n        /* \"#utility.yul\":3829:3830   */\n      dup5\n        /* \"#utility.yul\":3826:3848   */\n      eq\n        /* \"#utility.yul\":3806:3807   */\n      dup4\n        /* \"#utility.yul\":3799:3808   */\n      iszero\n        /* \"#utility.yul\":3779:3862   */\n      or\n        /* \"#utility.yul\":3756:3895   */\n      tag_113\n      jumpi\n        /* \"#utility.yul\":3875:3893   */\n      tag_114\n      tag_62\n      jump\t// in\n    tag_114:\n        /* \"#utility.yul\":3756:3895   */\n    tag_113:\n        /* \"#utility.yul\":3540:3902   */\n      pop\n        /* \"#utility.yul\":3492:3902   */\n      swap3\n      swap2\n      pop\n      pop\n      jump\t// out\n        /* \"#utility.yul\":3908:4088   */\n    tag_63:\n        /* \"#utility.yul\":3956:4033   */\n      0x4e487b7100000000000000000000000000000000000000000000000000000000\n        /* \"#utility.yul\":3953:3954   */\n      0x00\n        /* \"#utility.yul\":3946:4034   */\n      mstore\n        /* \"#utility.yul\":4053:4057   */\n      0x12\n        /* \"#utility.yul\":4050:4051   */\n      0x04\n        /* \"#utility.yul\":4043:4058   */\n      mstore\n        /* \"#utility.yul\":4077:4081   */\n      0x24\n        /* \"#utility.yul\":4074:4075   */\n      0x00\n        /* \"#utility.yul\":4067:4082   */\n      revert\n        /* \"#utility.yul\":4094:4279   */\n    tag_41:\n        /* \"#utility.yul\":4134:4135   */\n      0x00\n        /* \"#utility.yul\":4151:4171   */\n      tag_117\n        /* \"#utility.yul\":4169:4170   */\n      dup3\n        /* \"#utility.yul\":4151:4171   */\n      tag_49\n      jump\t// in\n    tag_117:\n        /* \"#utility.yul\":4146:4171   */\n      swap2\n      pop\n        /* \"#utility.yul\":4185:4205   */\n      tag_118\n        /* \"#utility.yul\":4203:4204   */\n      dup4\n        /* \"#utility.yul\":4185:4205   */\n      tag_49\n      jump\t// in\n    tag_118:\n        /* \"#utility.yul\":4180:4205   */\n      swap3\n      pop\n        /* \"#utility.yul\":4224:4225   */\n      dup3\n        /* \"#utility.yul\":4214:4249   */\n      tag_119\n      jumpi\n        /* \"#utility.yul\":4229:4247   */\n      tag_120\n      tag_63\n      jump\t// in\n    tag_120:\n        /* \"#utility.yul\":4214:4249   */\n    tag_119:\n        /* \"#utility.yul\":4271:4272   */\n      dup3\n        /* \"#utility.yul\":4268:4269   */\n      dup3\n        /* \"#utility.yul\":4264:4273   */\n      div\n        /* \"#utility.yul\":4259:4273   */\n      swap1\n      pop\n        /* \"#utility.yul\":4094:4279   */\n      swap3\n      swap2\n      pop\n      pop\n      jump\t// out\n        /* \"#utility.yul\":4285:4390   */\n    tag_64:\n        /* \"#utility.yul\":4321:4328   */\n      0x00\n        /* \"#utility.yul\":4361:4383   */\n      0xffffffffffffffffffff\n        /* \"#utility.yul\":4354:4359   */\n      dup3\n        /* \"#utility.yul\":4350:4384   */\n      and\n        /* \"#utility.yul\":4339:4384   */\n      swap1\n      pop\n        /* \"#utility.yul\":4285:4390   */\n      swap2\n      swap1\n      pop\n      jump\t// out\n        /* \"#utility.yul\":4396:4516   */\n    tag_65:\n        /* \"#utility.yul\":4468:4491   */\n      tag_123\n        /* \"#utility.yul\":4485:4490   */\n      dup2\n        /* \"#utility.yul\":4468:4491   */\n      tag_64\n      jump\t// in\n    tag_123:\n        /* \"#utility.yul\":4461:4466   */\n      dup2\n        /* \"#utility.yul\":4458:4492   */\n      eq\n        /* \"#utility.yul\":4448:4510   */\n      tag_124\n      jumpi\n        /* \"#utility.yul\":4506:4507   */\n      0x00\n        /* \"#utility.yul\":4503:4504   */\n      dup1\n        /* \"#utility.yul\":4496:4508   */\n      revert\n        /* \"#utility.yul\":4448:4510   */\n    tag_124:\n        /* \"#utility.yul\":4396:4516   */\n      pop\n      jump\t// out\n        /* \"#utility.yul\":4522:4663   */\n    tag_66:\n        /* \"#utility.yul\":4578:4583   */\n      0x00\n        /* \"#utility.yul\":4609:4615   */\n      dup2\n        /* \"#utility.yul\":4603:4616   */\n      mload\n        /* \"#utility.yul\":4594:4616   */\n      swap1\n      pop\n        /* \"#utility.yul\":4625:4657   */\n      tag_126\n        /* \"#utility.yul\":4651:4656   */\n      dup2\n        /* \"#utility.yul\":4625:4657   */\n      tag_65\n      jump\t// in\n    tag_126:\n        /* \"#utility.yul\":4522:4663   */\n      swap3\n      swap2\n      pop\n      pop\n      jump\t// out\n        /* \"#utility.yul\":4669:4745   */\n    tag_67:\n        /* \"#utility.yul\":4705:4712   */\n      0x00\n        /* \"#utility.yul\":4734:4739   */\n      dup2\n        /* \"#utility.yul\":4723:4739   */\n      swap1\n      pop\n        /* \"#utility.yul\":4669:4745   */\n      swap2\n      swap1\n      pop\n      jump\t// out\n        /* \"#utility.yul\":4751:4871   */\n    tag_68:\n        /* \"#utility.yul\":4823:4846   */\n      tag_129\n        /* \"#utility.yul\":4840:4845   */\n      dup2\n        /* \"#utility.yul\":4823:4846   */\n      tag_67\n      jump\t// in\n    tag_129:\n        /* \"#utility.yul\":4816:4821   */\n      dup2\n        /* \"#utility.yul\":4813:4847   */\n      eq\n        /* \"#utility.yul\":4803:4865   */\n      tag_130\n      jumpi\n        /* \"#utility.yul\":4861:4862   */\n      0x00\n        /* \"#utility.yul\":4858:4859   */\n      dup1\n        /* \"#utility.yul\":4851:4863   */\n      revert\n        /* \"#utility.yul\":4803:4865   */\n    tag_130:\n        /* \"#utility.yul\":4751:4871   */\n      pop\n      jump\t// out\n        /* \"#utility.yul\":4877:5018   */\n    tag_69:\n        /* \"#utility.yul\":4933:4938   */\n      0x00\n        /* \"#utility.yul\":4964:4970   */\n      dup2\n        /* \"#utility.yul\":4958:4971   */\n      mload\n        /* \"#utility.yul\":4949:4971   */\n      swap1\n      pop\n        /* \"#utility.yul\":4980:5012   */\n      tag_132\n        /* \"#utility.yul\":5006:5011   */\n      dup2\n        /* \"#utility.yul\":4980:5012   */\n      tag_68\n      jump\t// in\n    tag_132:\n        /* \"#utility.yul\":4877:5018   */\n      swap3\n      swap2\n      pop\n      pop\n      jump\t// out\n        /* \"#utility.yul\":5024:5167   */\n    tag_70:\n        /* \"#utility.yul\":5081:5086   */\n      0x00\n        /* \"#utility.yul\":5112:5118   */\n      dup2\n        /* \"#utility.yul\":5106:5119   */\n      mload\n        /* \"#utility.yul\":5097:5119   */\n      swap1\n      pop\n        /* \"#utility.yul\":5128:5161   */\n      tag_134\n        /* \"#utility.yul\":5155:5160   */\n      dup2\n        /* \"#utility.yul\":5128:5161   */\n      tag_54\n      jump\t// in\n    tag_134:\n        /* \"#utility.yul\":5024:5167   */\n      swap3\n      swap2\n      pop\n      pop\n      jump\t// out\n        /* \"#utility.yul\":5173:6144   */\n    tag_46:\n        /* \"#utility.yul\":5276:5282   */\n      0x00\n        /* \"#utility.yul\":5284:5290   */\n      dup1\n        /* \"#utility.yul\":5292:5298   */\n      0x00\n        /* \"#utility.yul\":5300:5306   */\n      dup1\n        /* \"#utility.yul\":5308:5314   */\n      0x00\n        /* \"#utility.yul\":5357:5360   */\n      0xa0\n        /* \"#utility.yul\":5345:5354   */\n      dup7\n        /* \"#utility.yul\":5336:5343   */\n      dup9\n        /* \"#utility.yul\":5332:5355   */\n      sub\n        /* \"#utility.yul\":5328:5361   */\n      slt\n        /* \"#utility.yul\":5325:5445   */\n      iszero\n      tag_136\n      jumpi\n        /* \"#utility.yul\":5364:5443   */\n      tag_137\n      tag_52\n      jump\t// in\n    tag_137:\n        /* \"#utility.yul\":5325:5445   */\n    tag_136:\n        /* \"#utility.yul\":5484:5485   */\n      0x00\n        /* \"#utility.yul\":5509:5572   */\n      tag_138\n        /* \"#utility.yul\":5564:5571   */\n      dup9\n        /* \"#utility.yul\":5555:5561   */\n      dup3\n        /* \"#utility.yul\":5544:5553   */\n      dup10\n        /* \"#utility.yul\":5540:5562   */\n      add\n        /* \"#utility.yul\":5509:5572   */\n      tag_66\n      jump\t// in\n    tag_138:\n        /* \"#utility.yul\":5499:5572   */\n      swap6\n      pop\n        /* \"#utility.yul\":5455:5582   */\n      pop\n        /* \"#utility.yul\":5621:5623   */\n      0x20\n        /* \"#utility.yul\":5647:5710   */\n      tag_139\n        /* \"#utility.yul\":5702:5709   */\n      dup9\n        /* \"#utility.yul\":5693:5699   */\n      dup3\n        /* \"#utility.yul\":5682:5691   */\n      dup10\n        /* \"#utility.yul\":5678:5700   */\n      add\n        /* \"#utility.yul\":5647:5710   */\n      tag_69\n      jump\t// in\n    tag_139:\n        /* \"#utility.yul\":5637:5710   */\n      swap5\n      pop\n        /* \"#utility.yul\":5592:5720   */\n      pop\n        /* \"#utility.yul\":5759:5761   */\n      0x40\n        /* \"#utility.yul\":5785:5849   */\n      tag_140\n        /* \"#utility.yul\":5841:5848   */\n      dup9\n        /* \"#utility.yul\":5832:5838   */\n      dup3\n        /* \"#utility.yul\":5821:5830   */\n      dup10\n        /* \"#utility.yul\":5817:5839   */\n      add\n        /* \"#utility.yul\":5785:5849   */\n      tag_70\n      jump\t// in\n    tag_140:\n        /* \"#utility.yul\":5775:5849   */\n      swap4\n      pop\n        /* \"#utility.yul\":5730:5859   */\n      pop\n        /* \"#utility.yul\":5898:5900   */\n      0x60\n        /* \"#utility.yul\":5924:5988   */\n      tag_141\n        /* \"#utility.yul\":5980:5987   */\n      dup9\n        /* \"#utility.yul\":5971:5977   */\n      dup3\n        /* \"#utility.yul\":5960:5969   */\n      dup10\n        /* \"#utility.yul\":5956:5978   */\n      add\n        /* \"#utility.yul\":5924:5988   */\n      tag_70\n      jump\t// in\n    tag_141:\n        /* \"#utility.yul\":5914:5988   */\n      swap3\n      pop\n        /* \"#utility.yul\":5869:5998   */\n      pop\n        /* \"#utility.yul\":6037:6040   */\n      0x80\n        /* \"#utility.yul\":6064:6127   */\n      tag_142\n        /* \"#utility.yul\":6119:6126   */\n      dup9\n        /* \"#utility.yul\":6110:6116   */\n      dup3\n        /* \"#utility.yul\":6099:6108   */\n      dup10\n        /* \"#utility.yul\":6095:6117   */\n      add\n        /* \"#utility.yul\":6064:6127   */\n      tag_66\n      jump\t// in\n    tag_142:\n        /* \"#utility.yul\":6054:6127   */\n      swap2\n      pop\n        /* \"#utility.yul\":6008:6137   */\n      pop\n        /* \"#utility.yul\":5173:6144   */\n      swap3\n      swap6\n      pop\n      swap3\n      swap6\n      swap1\n      swap4\n      pop\n      jump\t// out\n        /* \"#utility.yul\":6150:6706   */\n    tag_48:\n        /* \"#utility.yul\":6189:6196   */\n      0x00\n        /* \"#utility.yul\":6212:6231   */\n      tag_144\n        /* \"#utility.yul\":6229:6230   */\n      dup3\n        /* \"#utility.yul\":6212:6231   */\n      tag_67\n      jump\t// in\n    tag_144:\n        /* \"#utility.yul\":6207:6231   */\n      swap2\n      pop\n        /* \"#utility.yul\":6245:6264   */\n      tag_145\n        /* \"#utility.yul\":6262:6263   */\n      dup4\n        /* \"#utility.yul\":6245:6264   */\n      tag_67\n      jump\t// in\n    tag_145:\n        /* \"#utility.yul\":6240:6264   */\n      swap3\n      pop\n        /* \"#utility.yul\":6299:6300   */\n      dup3\n        /* \"#utility.yul\":6296:6297   */\n      dup3\n        /* \"#utility.yul\":6292:6301   */\n      mul\n        /* \"#utility.yul\":6321:6350   */\n      tag_146\n        /* \"#utility.yul\":6338:6349   */\n      dup2\n        /* \"#utility.yul\":6321:6350   */\n      tag_67\n      jump\t// in\n    tag_146:\n        /* \"#utility.yul\":6310:6350   */\n      swap2\n      pop\n        /* \"#utility.yul\":6408:6474   */\n      0x8000000000000000000000000000000000000000000000000000000000000000\n        /* \"#utility.yul\":6405:6406   */\n      dup5\n        /* \"#utility.yul\":6402:6475   */\n      eq\n        /* \"#utility.yul\":6398:6399   */\n      0x00\n        /* \"#utility.yul\":6395:6396   */\n      dup5\n        /* \"#utility.yul\":6391:6400   */\n      slt\n        /* \"#utility.yul\":6387:6476   */\n      and\n        /* \"#utility.yul\":6384:6499   */\n      iszero\n      tag_147\n      jumpi\n        /* \"#utility.yul\":6479:6497   */\n      tag_148\n      tag_62\n      jump\t// in\n    tag_148:\n        /* \"#utility.yul\":6384:6499   */\n    tag_147:\n        /* \"#utility.yul\":6649:6650   */\n      dup3\n        /* \"#utility.yul\":6640:6647   */\n      dup3\n        /* \"#utility.yul\":6635:6651   */\n      sdiv\n        /* \"#utility.yul\":6632:6633   */\n      dup5\n        /* \"#utility.yul\":6629:6652   */\n      eq\n        /* \"#utility.yul\":6609:6610   */\n      dup4\n        /* \"#utility.yul\":6602:6611   */\n      iszero\n        /* \"#utility.yul\":6582:6666   */\n      or\n        /* \"#utility.yul\":6559:6699   */\n      tag_149\n      jumpi\n        /* \"#utility.yul\":6679:6697   */\n      tag_150\n      tag_62\n      jump\t// in\n    tag_150:\n        /* \"#utility.yul\":6559:6699   */\n    tag_149:\n        /* \"#utility.yul\":6197:6706   */\n      pop\n        /* \"#utility.yul\":6150:6706   */\n      swap3\n      swap2\n      pop\n      pop\n      jump\t// out\n\n    auxdata: 0xa2646970667358221220e351eaf52ebf41fdee55457c7d2b50f7fe830e7a2acbf7351f2d3981bb24f41764736f6c634300081a0033\n}\n",
				"bytecode": {
					"linkReferences": {},
					"object": "6080604052674563918244f400005f553480156019575f80fd5b506106e9806100275f395ff3fe60806040526004361061003e575f3560e01c8063098de820146100425780633ccfd60b1461006c578063b60d428814610082578063dc0d3dff1461008c575b5f80fd5b34801561004d575f80fd5b506100566100c8565b6040516100639190610300565b60405180910390f35b348015610077575f80fd5b506100806100cd565b005b61008a6100cf565b005b348015610097575f80fd5b506100b260048036038101906100ad9190610347565b6101d0565b6040516100bf91906103b1565b60405180910390f35b5f5481565b565b5f546100da3461020b565b101561011b576040517f08c379a000000000000000000000000000000000000000000000000000000000815260040161011290610424565b60405180910390fd5b600133908060018154018082558091505060019003905f5260205f20015f9091909190916101000a81548173ffffffffffffffffffffffffffffffffffffffff021916908373ffffffffffffffffffffffffffffffffffffffff1602179055503460025f3373ffffffffffffffffffffffffffffffffffffffff1673ffffffffffffffffffffffffffffffffffffffff1681526020019081526020015f205f8282546101c7919061046f565b92505081905550565b600181815481106101df575f80fd5b905f5260205f20015f915054906101000a900473ffffffffffffffffffffffffffffffffffffffff1681565b5f80610215610243565b90505f670de0b6b3a7640000828561022d91906104a2565b6102379190610510565b90508092505050919050565b5f80735fb1616f78da7afc9ff79e0371741a747d2a7f2290505f8173ffffffffffffffffffffffffffffffffffffffff1663feaf968c6040518163ffffffff1660e01b815260040160a060405180830381865afa1580156102a6573d5f803e3d5ffd5b505050506040513d601f19601f820116820180604052508101906102ca91906105c6565b5050509150506402540be400816102e1919061063d565b9250505090565b5f819050919050565b6102fa816102e8565b82525050565b5f6020820190506103135f8301846102f1565b92915050565b5f80fd5b610326816102e8565b8114610330575f80fd5b50565b5f813590506103418161031d565b92915050565b5f6020828403121561035c5761035b610319565b5b5f61036984828501610333565b91505092915050565b5f73ffffffffffffffffffffffffffffffffffffffff82169050919050565b5f61039b82610372565b9050919050565b6103ab81610391565b82525050565b5f6020820190506103c45f8301846103a2565b92915050565b5f82825260208201905092915050565b7f6469646e27742073656e6420656e6f75676800000000000000000000000000005f82015250565b5f61040e6012836103ca565b9150610419826103da565b602082019050919050565b5f6020820190508181035f83015261043b81610402565b9050919050565b7f4e487b71000000000000000000000000000000000000000000000000000000005f52601160045260245ffd5b5f610479826102e8565b9150610484836102e8565b925082820190508082111561049c5761049b610442565b5b92915050565b5f6104ac826102e8565b91506104b7836102e8565b92508282026104c5816102e8565b915082820484148315176104dc576104db610442565b5b5092915050565b7f4e487b71000000000000000000000000000000000000000000000000000000005f52601260045260245ffd5b5f61051a826102e8565b9150610525836102e8565b925082610535576105346104e3565b5b828204905092915050565b5f69ffffffffffffffffffff82169050919050565b61055e81610540565b8114610568575f80fd5b50565b5f8151905061057981610555565b92915050565b5f819050919050565b6105918161057f565b811461059b575f80fd5b50565b5f815190506105ac81610588565b92915050565b5f815190506105c08161031d565b92915050565b5f805f805f60a086880312156105df576105de610319565b5b5f6105ec8882890161056b565b95505060206105fd8882890161059e565b945050604061060e888289016105b2565b935050606061061f888289016105b2565b92505060806106308882890161056b565b9150509295509295909350565b5f6106478261057f565b91506106528361057f565b92508282026106608161057f565b91507f800000000000000000000000000000000000000000000000000000000000000084145f8412161561069757610696610442565b5b82820584148315176106ac576106ab610442565b5b509291505056fea2646970667358221220e351eaf52ebf41fdee55457c7d2b50f7fe830e7a2acbf7351f2d3981bb24f41764736f6c634300081a0033",
					"opcodes": "PUSH1 0x80 PUSH1 0x40 MSTORE PUSH8 0x4563918244F40000 PUSH0 SSTORE CALLVALUE DUP1 ISZERO PUSH1 0x19 JUMPI PUSH0 DUP1 REVERT JUMPDEST POP PUSH2 0x6E9 DUP1 PUSH2 0x27 PUSH0 CODECOPY PUSH0 RETURN INVALID PUSH1 0x80 PUSH1 0x40 MSTORE PUSH1 0x4 CALLDATASIZE LT PUSH2 0x3E JUMPI PUSH0 CALLDATALOAD PUSH1 0xE0 SHR DUP1 PUSH4 0x98DE820 EQ PUSH2 0x42 JUMPI DUP1 PUSH4 0x3CCFD60B EQ PUSH2 0x6C JUMPI DUP1 PUSH4 0xB60D4288 EQ PUSH2 0x82 JUMPI DUP1 PUSH4 0xDC0D3DFF EQ PUSH2 0x8C JUMPI JUMPDEST PUSH0 DUP1 REVERT JUMPDEST CALLVALUE DUP1 ISZERO PUSH2 0x4D JUMPI PUSH0 DUP1 REVERT JUMPDEST POP PUSH2 0x56 PUSH2 0xC8 JUMP JUMPDEST PUSH1 0x40 MLOAD PUSH2 0x63 SWAP2 SWAP1 PUSH2 0x300 JUMP JUMPDEST PUSH1 0x40 MLOAD DUP1 SWAP2 SUB SWAP1 RETURN JUMPDEST CALLVALUE DUP1 ISZERO PUSH2 0x77 JUMPI PUSH0 DUP1 REVERT JUMPDEST POP PUSH2 0x80 PUSH2 0xCD JUMP JUMPDEST STOP JUMPDEST PUSH2 0x8A PUSH2 0xCF JUMP JUMPDEST STOP JUMPDEST CALLVALUE DUP1 ISZERO PUSH2 0x97 JUMPI PUSH0 DUP1 REVERT JUMPDEST POP PUSH2 0xB2 PUSH1 0x4 DUP1 CALLDATASIZE SUB DUP2 ADD SWAP1 PUSH2 0xAD SWAP2 SWAP1 PUSH2 0x347 JUMP JUMPDEST PUSH2 0x1D0 JUMP JUMPDEST PUSH1 0x40 MLOAD PUSH2 0xBF SWAP2 SWAP1 PUSH2 0x3B1 JUMP JUMPDEST PUSH1 0x40 MLOAD DUP1 SWAP2 SUB SWAP1 RETURN JUMPDEST PUSH0 SLOAD DUP2 JUMP JUMPDEST JUMP JUMPDEST PUSH0 SLOAD PUSH2 0xDA CALLVALUE PUSH2 0x20B JUMP JUMPDEST LT ISZERO PUSH2 0x11B JUMPI PUSH1 0x40 MLOAD PUSH32 0x8C379A000000000000000000000000000000000000000000000000000000000 DUP2 MSTORE PUSH1 0x4 ADD PUSH2 0x112 SWAP1 PUSH2 0x424 JUMP JUMPDEST PUSH1 0x40 MLOAD DUP1 SWAP2 SUB SWAP1 REVERT JUMPDEST PUSH1 0x1 CALLER SWAP1 DUP1 PUSH1 0x1 DUP2 SLOAD ADD DUP1 DUP3 SSTORE DUP1 SWAP2 POP POP PUSH1 0x1 SWAP1 SUB SWAP1 PUSH0 MSTORE PUSH1 0x20 PUSH0 KECCAK256 ADD PUSH0 SWAP1 SWAP2 SWAP1 SWAP2 SWAP1 SWAP2 PUSH2 0x100 EXP DUP2 SLOAD DUP2 PUSH20 0xFFFFFFFFFFFFFFFFFFFFFFFFFFFFFFFFFFFFFFFF MUL NOT AND SWAP1 DUP4 PUSH20 0xFFFFFFFFFFFFFFFFFFFFFFFFFFFFFFFFFFFFFFFF AND MUL OR SWAP1 SSTORE POP CALLVALUE PUSH1 0x2 PUSH0 CALLER PUSH20 0xFFFFFFFFFFFFFFFFFFFFFFFFFFFFFFFFFFFFFFFF AND PUSH20 0xFFFFFFFFFFFFFFFFFFFFFFFFFFFFFFFFFFFFFFFF AND DUP2 MSTORE PUSH1 0x20 ADD SWAP1 DUP2 MSTORE PUSH1 0x20 ADD PUSH0 KECCAK256 PUSH0 DUP3 DUP3 SLOAD PUSH2 0x1C7 SWAP2 SWAP1 PUSH2 0x46F JUMP JUMPDEST SWAP3 POP POP DUP2 SWAP1 SSTORE POP JUMP JUMPDEST PUSH1 0x1 DUP2 DUP2 SLOAD DUP2 LT PUSH2 0x1DF JUMPI PUSH0 DUP1 REVERT JUMPDEST SWAP1 PUSH0 MSTORE PUSH1 0x20 PUSH0 KECCAK256 ADD PUSH0 SWAP2 POP SLOAD SWAP1 PUSH2 0x100 EXP SWAP1 DIV PUSH20 0xFFFFFFFFFFFFFFFFFFFFFFFFFFFFFFFFFFFFFFFF AND DUP2 JUMP JUMPDEST PUSH0 DUP1 PUSH2 0x215 PUSH2 0x243 JUMP JUMPDEST SWAP1 POP PUSH0 PUSH8 0xDE0B6B3A7640000 DUP3 DUP6 PUSH2 0x22D SWAP2 SWAP1 PUSH2 0x4A2 JUMP JUMPDEST PUSH2 0x237 SWAP2 SWAP1 PUSH2 0x510 JUMP JUMPDEST SWAP1 POP DUP1 SWAP3 POP POP POP SWAP2 SWAP1 POP JUMP JUMPDEST PUSH0 DUP1 PUSH20 0x5FB1616F78DA7AFC9FF79E0371741A747D2A7F22 SWAP1 POP PUSH0 DUP2 PUSH20 0xFFFFFFFFFFFFFFFFFFFFFFFFFFFFFFFFFFFFFFFF AND PUSH4 0xFEAF968C PUSH1 0x40 MLOAD DUP2 PUSH4 0xFFFFFFFF AND PUSH1 0xE0 SHL DUP2 MSTORE PUSH1 0x4 ADD PUSH1 0xA0 PUSH1 0x40 MLOAD DUP1 DUP4 SUB DUP2 DUP7 GAS STATICCALL ISZERO DUP1 ISZERO PUSH2 0x2A6 JUMPI RETURNDATASIZE PUSH0 DUP1 RETURNDATACOPY RETURNDATASIZE PUSH0 REVERT JUMPDEST POP POP POP POP PUSH1 0x40 MLOAD RETURNDATASIZE PUSH1 0x1F NOT PUSH1 0x1F DUP3 ADD AND DUP3 ADD DUP1 PUSH1 0x40 MSTORE POP DUP2 ADD SWAP1 PUSH2 0x2CA SWAP2 SWAP1 PUSH2 0x5C6 JUMP JUMPDEST POP POP POP SWAP2 POP POP PUSH5 0x2540BE400 DUP2 PUSH2 0x2E1 SWAP2 SWAP1 PUSH2 0x63D JUMP JUMPDEST SWAP3 POP POP POP SWAP1 JUMP JUMPDEST PUSH0 DUP2 SWAP1 POP SWAP2 SWAP1 POP JUMP JUMPDEST PUSH2 0x2FA DUP2 PUSH2 0x2E8 JUMP JUMPDEST DUP3 MSTORE POP POP JUMP JUMPDEST PUSH0 PUSH1 0x20 DUP3 ADD SWAP1 POP PUSH2 0x313 PUSH0 DUP4 ADD DUP5 PUSH2 0x2F1 JUMP JUMPDEST SWAP3 SWAP2 POP POP JUMP JUMPDEST PUSH0 DUP1 REVERT JUMPDEST PUSH2 0x326 DUP2 PUSH2 0x2E8 JUMP JUMPDEST DUP2 EQ PUSH2 0x330 JUMPI PUSH0 DUP1 REVERT JUMPDEST POP JUMP JUMPDEST PUSH0 DUP2 CALLDATALOAD SWAP1 POP PUSH2 0x341 DUP2 PUSH2 0x31D JUMP JUMPDEST SWAP3 SWAP2 POP POP JUMP JUMPDEST PUSH0 PUSH1 0x20 DUP3 DUP5 SUB SLT ISZERO PUSH2 0x35C JUMPI PUSH2 0x35B PUSH2 0x319 JUMP JUMPDEST JUMPDEST PUSH0 PUSH2 0x369 DUP5 DUP3 DUP6 ADD PUSH2 0x333 JUMP JUMPDEST SWAP2 POP POP SWAP3 SWAP2 POP POP JUMP JUMPDEST PUSH0 PUSH20 0xFFFFFFFFFFFFFFFFFFFFFFFFFFFFFFFFFFFFFFFF DUP3 AND SWAP1 POP SWAP2 SWAP1 POP JUMP JUMPDEST PUSH0 PUSH2 0x39B DUP3 PUSH2 0x372 JUMP JUMPDEST SWAP1 POP SWAP2 SWAP1 POP JUMP JUMPDEST PUSH2 0x3AB DUP2 PUSH2 0x391 JUMP JUMPDEST DUP3 MSTORE POP POP JUMP JUMPDEST PUSH0 PUSH1 0x20 DUP3 ADD SWAP1 POP PUSH2 0x3C4 PUSH0 DUP4 ADD DUP5 PUSH2 0x3A2 JUMP JUMPDEST SWAP3 SWAP2 POP POP JUMP JUMPDEST PUSH0 DUP3 DUP3 MSTORE PUSH1 0x20 DUP3 ADD SWAP1 POP SWAP3 SWAP2 POP POP JUMP JUMPDEST PUSH32 0x6469646E27742073656E6420656E6F7567680000000000000000000000000000 PUSH0 DUP3 ADD MSTORE POP JUMP JUMPDEST PUSH0 PUSH2 0x40E PUSH1 0x12 DUP4 PUSH2 0x3CA JUMP JUMPDEST SWAP2 POP PUSH2 0x419 DUP3 PUSH2 0x3DA JUMP JUMPDEST PUSH1 0x20 DUP3 ADD SWAP1 POP SWAP2 SWAP1 POP JUMP JUMPDEST PUSH0 PUSH1 0x20 DUP3 ADD SWAP1 POP DUP2 DUP2 SUB PUSH0 DUP4 ADD MSTORE PUSH2 0x43B DUP2 PUSH2 0x402 JUMP JUMPDEST SWAP1 POP SWAP2 SWAP1 POP JUMP JUMPDEST PUSH32 0x4E487B7100000000000000000000000000000000000000000000000000000000 PUSH0 MSTORE PUSH1 0x11 PUSH1 0x4 MSTORE PUSH1 0x24 PUSH0 REVERT JUMPDEST PUSH0 PUSH2 0x479 DUP3 PUSH2 0x2E8 JUMP JUMPDEST SWAP2 POP PUSH2 0x484 DUP4 PUSH2 0x2E8 JUMP JUMPDEST SWAP3 POP DUP3 DUP3 ADD SWAP1 POP DUP1 DUP3 GT ISZERO PUSH2 0x49C JUMPI PUSH2 0x49B PUSH2 0x442 JUMP JUMPDEST JUMPDEST SWAP3 SWAP2 POP POP JUMP JUMPDEST PUSH0 PUSH2 0x4AC DUP3 PUSH2 0x2E8 JUMP JUMPDEST SWAP2 POP PUSH2 0x4B7 DUP4 PUSH2 0x2E8 JUMP JUMPDEST SWAP3 POP DUP3 DUP3 MUL PUSH2 0x4C5 DUP2 PUSH2 0x2E8 JUMP JUMPDEST SWAP2 POP DUP3 DUP3 DIV DUP5 EQ DUP4 ISZERO OR PUSH2 0x4DC JUMPI PUSH2 0x4DB PUSH2 0x442 JUMP JUMPDEST JUMPDEST POP SWAP3 SWAP2 POP POP JUMP JUMPDEST PUSH32 0x4E487B7100000000000000000000000000000000000000000000000000000000 PUSH0 MSTORE PUSH1 0x12 PUSH1 0x4 MSTORE PUSH1 0x24 PUSH0 REVERT JUMPDEST PUSH0 PUSH2 0x51A DUP3 PUSH2 0x2E8 JUMP JUMPDEST SWAP2 POP PUSH2 0x525 DUP4 PUSH2 0x2E8 JUMP JUMPDEST SWAP3 POP DUP3 PUSH2 0x535 JUMPI PUSH2 0x534 PUSH2 0x4E3 JUMP JUMPDEST JUMPDEST DUP3 DUP3 DIV SWAP1 POP SWAP3 SWAP2 POP POP JUMP JUMPDEST PUSH0 PUSH10 0xFFFFFFFFFFFFFFFFFFFF DUP3 AND SWAP1 POP SWAP2 SWAP1 POP JUMP JUMPDEST PUSH2 0x55E DUP2 PUSH2 0x540 JUMP JUMPDEST DUP2 EQ PUSH2 0x568 JUMPI PUSH0 DUP1 REVERT JUMPDEST POP JUMP JUMPDEST PUSH0 DUP2 MLOAD SWAP1 POP PUSH2 0x579 DUP2 PUSH2 0x555 JUMP JUMPDEST SWAP3 SWAP2 POP POP JUMP JUMPDEST PUSH0 DUP2 SWAP1 POP SWAP2 SWAP1 POP JUMP JUMPDEST PUSH2 0x591 DUP2 PUSH2 0x57F JUMP JUMPDEST DUP2 EQ PUSH2 0x59B JUMPI PUSH0 DUP1 REVERT JUMPDEST POP JUMP JUMPDEST PUSH0 DUP2 MLOAD SWAP1 POP PUSH2 0x5AC DUP2 PUSH2 0x588 JUMP JUMPDEST SWAP3 SWAP2 POP POP JUMP JUMPDEST PUSH0 DUP2 MLOAD SWAP1 POP PUSH2 0x5C0 DUP2 PUSH2 0x31D JUMP JUMPDEST SWAP3 SWAP2 POP POP JUMP JUMPDEST PUSH0 DUP1 PUSH0 DUP1 PUSH0 PUSH1 0xA0 DUP7 DUP9 SUB SLT ISZERO PUSH2 0x5DF JUMPI PUSH2 0x5DE PUSH2 0x319 JUMP JUMPDEST JUMPDEST PUSH0 PUSH2 0x5EC DUP9 DUP3 DUP10 ADD PUSH2 0x56B JUMP JUMPDEST SWAP6 POP POP PUSH1 0x20 PUSH2 0x5FD DUP9 DUP3 DUP10 ADD PUSH2 0x59E JUMP JUMPDEST SWAP5 POP POP PUSH1 0x40 PUSH2 0x60E DUP9 DUP3 DUP10 ADD PUSH2 0x5B2 JUMP JUMPDEST SWAP4 POP POP PUSH1 0x60 PUSH2 0x61F DUP9 DUP3 DUP10 ADD PUSH2 0x5B2 JUMP JUMPDEST SWAP3 POP POP PUSH1 0x80 PUSH2 0x630 DUP9 DUP3 DUP10 ADD PUSH2 0x56B JUMP JUMPDEST SWAP2 POP POP SWAP3 SWAP6 POP SWAP3 SWAP6 SWAP1 SWAP4 POP JUMP JUMPDEST PUSH0 PUSH2 0x647 DUP3 PUSH2 0x57F JUMP JUMPDEST SWAP2 POP PUSH2 0x652 DUP4 PUSH2 0x57F JUMP JUMPDEST SWAP3 POP DUP3 DUP3 MUL PUSH2 0x660 DUP2 PUSH2 0x57F JUMP JUMPDEST SWAP2 POP PUSH32 0x8000000000000000000000000000000000000000000000000000000000000000 DUP5 EQ PUSH0 DUP5 SLT AND ISZERO PUSH2 0x697 JUMPI PUSH2 0x696 PUSH2 0x442 JUMP JUMPDEST JUMPDEST DUP3 DUP3 SDIV DUP5 EQ DUP4 ISZERO OR PUSH2 0x6AC JUMPI PUSH2 0x6AB PUSH2 0x442 JUMP JUMPDEST JUMPDEST POP SWAP3 SWAP2 POP POP JUMP INVALID LOG2 PUSH5 0x6970667358 0x22 SLT KECCAK256 0xE3 MLOAD 0xEA CREATE2 0x2E 0xBF COINBASE REVERT 0xEE SSTORE GASLIMIT PUSH29 0x7D2B50F7FE830E7A2ACBF7351F2D3981BB24F41764736F6C634300081A STOP CALLER "
				},
				"gasEstimates": {
					"creation": {
						"codeDepositCost": "353800",
						"executionCost": "22496",
						"totalCost": "376296"
					},
					"external": {
						"fund()": "infinite",
						"funders(uint256)": "4988",
						"minimumUsd()": "2402",
						"withdraw()": "143"
					}
				},
				"methodIdentifiers": {
					"fund()": "b60d4288",
					"funders(uint256)": "dc0d3dff",
					"minimumUsd()": "098de820",
					"withdraw()": "3ccfd60b"
				}
			},
			"storageLayout": {
				"storage": [
					{
						"astId": 55,
						"contract": "FundMe.sol:FundMe",
						"label": "minimumUsd",
						"offset": 0,
						"slot": "0",
						"type": "t_uint256"
					},
					{
						"astId": 58,
						"contract": "FundMe.sol:FundMe",
						"label": "funders",
						"offset": 0,
						"slot": "1",
						"type": "t_array(t_address)dyn_storage"
					},
					{
						"astId": 62,
						"contract": "FundMe.sol:FundMe",
						"label": "addressToAmountFunded",
						"offset": 0,
						"slot": "2",
						"type": "t_mapping(t_address,t_uint256)"
					}
				],
				"types": {
					"t_address": {
						"encoding": "inplace",
						"label": "address",
						"numberOfBytes": "20"
					},
					"t_array(t_address)dyn_storage": {
						"base": "t_address",
						"encoding": "dynamic_array",
						"label": "address[]",
						"numberOfBytes": "32"
					},
					"t_mapping(t_address,t_uint256)": {
						"encoding": "mapping",
						"key": "t_address",
						"label": "mapping(address => uint256)",
						"numberOfBytes": "32",
						"value": "t_uint256"
					},
					"t_uint256": {
						"encoding": "inplace",
						"label": "uint256",
						"numberOfBytes": "32"
					}
				}
			},
			"userdoc": {
				"kind": "user",
				"methods": {},
				"version": 1
			}
		}
	}
}